:1000000012C02AC029C028C027C026C025C0BAC136
:1000100090C177C121C020C01FC02EC01DC01CC010
:100020001BC01AC019C011241FBECFEDCDBF10E0F8
:10003000A0E6B0E0E6E0F6E002C005900D92A2383E
:10004000B107D9F710E0A2E8B0E001C01D92A63CCC
:10005000B107E1F7C8D0D5C2D3CF12BE82EC86BFBC
:1000600010929A001092990082E080BF85E083BFD1
:1000700089B7816089BF08951F920F920FB60F92C2
:1000800011248F939F9380919A008F5F80939A00A1
:10009000843638F010929A00809199008F5F809397
:1000A000990088B391E0892788BB9F918F910F9029
:1000B0000FBE0F901F90189581E090E08CD2809336
:1000C000600008951F939091600080919C008917B3
:1000D00009F482C080919B008F3F91F0981709F03E
:1000E0007BC00EC0812F8350823040F0E12FF0E0C2
:1000F000E556FF4FCA01608132D2AC011F5F03C0D9
:1001000040E050E010E080919D00181758F3252F33
:10011000332780919F0090E02817390709F05CC0D1
:10012000507080919E0090E04817590709F054C024
:100130008091A000813479F480919C008093B1007B
:10014000809160008093B20087E08093B30081E6E5
:100150008093B6003CC0873521F580919C00809348
:10016000B10088E08093B30087E78093B600809168
:10017000A10090E06091A20036D29091A1009093EE
:10018000B7008091A2008093B800913029F481E0FB
:1001900090E021D280936000809160008093B20053
:1001A00016C08235C9F480919C008093B100809183
:1001B00060008093B20087E08093B30082E7809371
:1001C000B6008091A10090E006D28093B7008091A4
:1001D000AF0080688093AF008091AF008E7F8093E6
:1001E000AF001F910895DF92EF92FF920F931F933C
:1001F000CF93DF9361DF31DFB89A6BD0789400E062
:10020000DD24DA9427E0E22E93E5F92EC8E8D3E165
:100210008091AF0080FD56DF80919900823018F008
:100220001092990002C0002399F19091AF00892F9C
:10023000807C69F5809160008093B200D092B1001B
:10024000E092B300F092B6001092B70090689093DD
:10025000AF0000E01DC080FD35DFF3D0882311F032
:1002600014E10DC08091AF008F778093AF00D0CFA5
:10027000CE010197F1F78091AF0080FD23DF11508F
:100280001F3F31F08091B000823011F0F1CF01E0DA
:100290008091AF0087FDDFCFBBCFF894882311F0AA
:1002A000929801C0929A30E020E045E80AC02330DD
:1002B00040F0809931E0381721F09298899881E0D8
:1002C0000895942F9A95F1F72F5F2A3081F780E0F7
:1002D00008958A9A92988898899810929700109217
:1002E00096001092B00086E0809398008093C5003D
:1002F0001092AF0012B895E199B983B988E98AB92B
:1003000008951F920F920FB60F9211248F93929817
:1003100056985398579A8091AF008F7B8093AF0087
:1003200086E0809398008F910F900FBE0F901F90E2
:1003300018951F920F920FB60F9211248F939F93CF
:10034000EF93FF9390919700913011F4569A02C069
:10035000943120F48091B300981710F0559809C09B
:10036000E92FF0E0EF54FF4F80818CB99F5F9093AD
:100370009700FF91EF919F918F910F900FBE0F907B
:100380001F9018951F920F920FB60F9211242F9362
:100390003F938F939F93AF93BF93EF93FF9381E02E
:1003A0008093B0008BB1887121F08CB110929600CF
:1003B0003BC0909196008CB1E92FF0E0EE57FF4FD3
:1003C00080839F5F90939600963038F180918400EF
:1003D000981710F4943108F1109296009091AF00A4
:1003E00090FD1BC0853118F084E1809384008091DA
:1003F0008400E2E8F0E0ABE9B0E0282F30E02E0F17
:100400003F1F02C081918D93E217F307D9F79160E6
:100410009093AF0082E08093B00080919600843189
:1004200018F083E180939600FF91EF91BF91AF9117
:100430009F918F913F912F910F900FBE0F901F9022
:100440001895FF920F931F939091AF0096FD82C075
:100450008091B300853020F49F739093AF0078C0F3
:10046000F090B20010E020E030E00DC0812F83500A
:10047000823040F0E12FF0E0EF54FF4FC90160817E
:100480006ED09C011F5F8091B300181778F3209302
:10049000B4003093B5001092B00080E197E201976C
:1004A000F1F7109198002091C500812F90E0820F04
:1004B000911D6AE070E07DD02F2D2F70280F92984B
:1004C0009198899AF894539878941092960090E0B5
:1004D00032E4832F8A95F1F7809B0BC09F5F98329F
:1004E000C1F790E032E408C0832F8A95F1F7809934
:1004F00002C0899819C09F5F9217B0F380E0CDDEEB
:10050000882391F400E08F2D8170C7DEF694882354
:1005100059F40F5F0830B9F781E0BFDE882321F47A
:1005200081E0BBDE882331F01123A1F0115010933C
:10053000980010C08998539A929A109297008091CF
:10054000AF0080648F778093AF00F894559A7894C9
:1005500080E001C081E01F910F91FF900895482F26
:1005600020E0222339F0892F82958F70E62FEF70DB
:10057000E82704C0E92FE627E295EF709295907F77
:10058000842F82958F70982B4295407FF0E0DF0199
:10059000AF59BF4F8C919827EF58FF4F8081482764
:1005A0002F5F2230F1F6392F20E0240F311DC901D1
:1005B00008955527002480FF02C0060E571F660FBE
:1005C000771F6115710521F096958795009799F72A
:1005D000952F802D0895E199FECF1FBA8EBBE09A2A
:1005E00099278DB30895262FE199FECF1CBA1FBA23
:1005F0008EBB2DBB0FB6F894E29AE19A0FBE01961E
:060600000895F894FFCFFD
:100606001100A0E04060C08020C0602080A00040B3
:10061600E000010302070604050E0F0D0C09080A87
:020626000B00C7
:00000001FF
