:1000000012C02AC029C028C027C026C025C002C2ED
:10001000D8C1BEC121C020C01FC02EC01DC01CC081
:100020001BC01AC019C011241FBECFEDCDBF10E0F8
:10003000A0E6B0E0E6E9F6E002C005900D92A23835
:10004000B107D9F710E0A2E8B0E001C01D92A73CCB
:10005000B107E1F7FDD01DC3D3CF12BE82EC86BF3E
:1000600010929B0010929A0082E080BF85E083BFCF
:1000700089B7816089BF08951F920F920FB60F92C2
:1000800011248F939F9380919B008F5F80939B009F
:10009000843638F010929B0080919A008F5F809395
:1000A0009A0088B391E0892788BB9F918F910F9028
:1000B0000FBE0F901F90189580E090E0D4D28093EF
:1000C000600008951F939091600080919D008917B2
:1000D00009F4B7C080919C008F3F91F0981709F008
:1000E000B0C00EC0812F8350823040F0E12FF0E08D
:1000F000E456FF4FCA0160817AD2AC011F5F03C092
:1001000040E050E010E080919E00181758F3252F32
:1001100033278091A00090E02817390709F091C09B
:10012000507080919F0090E04817590709F089C0EE
:100130008091A100813479F480919D008093B20078
:10014000809160008093B30086E08093B40081E6E4
:100150008093B70071C0873521F580919D00809311
:10016000B20088E08093B40087E78093B700809165
:10017000A20090E06091A3007ED29091A2009093A3
:10018000B8008091A3008093B900992329F480E0FE
:1001900090E069D280936000809160008093B3000A
:1001A0004BC08235A9F480919D008093B20080916C
:1001B00060008093B30087E08093B40082E780936F
:1001C000B7008091A20090E04ED28093B80034C076
:1001D0008334B9F580919D008093B20080916000D6
:1001E0008093B30088E08093B40083E68093B700E7
:1001F0002091A2002093B8008091A3008093B900C1
:10020000233068F4882359F081E090E002C0880F21
:10021000991F2A95E2F720918200282B0BC081E0DC
:1002200090E002C0880F991F2A95E2F780952091EF
:1002300082002823209382008091B0008068809300
:10024000B0008091B0008E7F8093B0001F91089520
:10025000CF92DF92EF92FF920F931F93CF93DF9392
:100260002BDFFBDE87B38F6087BB78D0789400E00C
:1002700010E0CC24CA9427E0D22E93E5E92EC8E8FA
:10028000D3E101C01F2D8091B00080FD1BDF98B32A
:10029000F09082008F2D8F70907F892B88BB1F116B
:1002A00001E080919A00823018F010929A0002C00A
:1002B000002399F19091B000892F807C69F580919D
:1002C00060008093B300C092B200D092B400E0927C
:1002D000B700F092B80090689093B00000E01DC0A5
:1002E00080FDF0DEF6D0882311F014E10DC080917E
:1002F000B0008F778093B000C5CFCE010197F1F7A2
:100300008091B00080FDDEDE11501F3F31F0809102
:10031000B100823011F0F1CF01E08091B00087FD93
:10032000DFCFB0CFF894882311F0929801C0929A51
:1003300030E020E045E80AC0233040F0809931E009
:10034000381721F09298899881E00895942F9A9512
:10035000F1F72F5F2A3081F780E008958A9A92980A
:100360008898899810929800109297001092B10086
:1003700086E0809399008093C6001092B00012B876
:1003800095E199B91BB81AB883B988E98AB9089573
:100390001F920F920FB60F9211248F9392988AB1E9
:1003A000877B8AB9579A8091B0008F7B8093B00089
:1003B00086E0809399008F910F900FBE0F901F9051
:1003C00018951F920F920FB60F9211248F939F933F
:1003D000EF93FF9390919800913011F4569A02C0D8
:1003E000943120F48091B400981710F0559809C00A
:1003F000E92FF0E0EE54FF4F80818CB99F5F90931E
:100400009800FF91EF919F918F910F900FBE0F90E9
:100410001F9018951F920F920FB60F9211242F93D1
:100420003F938F939F93AF93BF93EF93FF9381E09D
:100430008093B1008BB1887121F08CB1109297003C
:100440003BC0909197008CB1E92FF0E0ED57FF4F42
:1004500080839F5F90939700963038F1809185005C
:10046000981710F4943108F1109297009091B00011
:1004700090FD1BC0853118F084E180938500809148
:100480008500E3E8F0E0ACE9B0E0282F30E02E0F83
:100490003F1F02C081918D93E217F307D9F7916056
:1004A0009093B00082E08093B100809197008431F6
:1004B00018F083E180939700FF91EF91BF91AF9186
:1004C0009F918F913F912F910F900FBE0F901F9092
:1004D0001895FF920F931F939091B00096FD82C0E4
:1004E0008091B400853020F49F739093B00078C061
:1004F000F090B30010E020E030E00DC0812F835079
:10050000823040F0E12FF0E0EE54FF4FC9016081EE
:100510006ED09C011F5F8091B400181778F3209370
:10052000B5003093B6001092B10080E197E20197D8
:10053000F1F7109199002091C600812F90E0820F71
:10054000911D6AE070E07DD02F2D2F70280F9298BA
:100550009198899AF894539878941092970090E023
:1005600032E4832F8A95F1F7809B0BC09F5F9C320A
:10057000C1F790E032E408C0832F8A95F1F78099A3
:1005800002C0899819C09F5F9217B0F380E0CADE5D
:10059000882391F400E08F2D8170C4DEF6948823C7
:1005A00059F40F5F0830B9F781E0BCDE882321F4ED
:1005B00081E0B8DE882331F01123A1F011501093AF
:1005C000990010C08998539A929A1092980080913D
:1005D000B00080648F778093B000F894559A789437
:1005E00080E001C081E01F910F91FF900895482F96
:1005F00020E0222339F0892F82958F70E62FEF704B
:10060000E82704C0E92FE627E295EF709295907FE6
:10061000842F82958F70982B4295407FF0E0DF0108
:10062000AF59BF4F8C919827EF58FF4F80814827D3
:100630002F5F2230F1F6392F20E0240F311DC90140
:1006400008955527002480FF02C0060E571F660F2D
:10065000771F6115710521F096958795009799F799
:10066000952F802D0895E199FECF1FBA8EBBE09A99
:1006700099278DB30895262FE199FECF1CBA1FBA92
:100680008EBB2DBB0FB6F894E29AE19A0FBE01968D
:060690000895F894FFCF6D
:100696001100A0E04060C08020C0602080A0004023
:1006A600E000010302070604050E0F0D0C09080AF7
:0206B6000B0037
:00000001FF
