:1000000019C033C032C031C030C02FC02EC02DC087
:100010002CC02BC02AC029C028C027C027C025C09B
:1000200024C023C0BFC234C319C345C01EC01DC0F5
:100030001CC01BC011241FBECFEFD2E0DEBFCDBF5E
:1000400011E0A0E0B1E0E2E7FBE002C005900D9214
:10005000A232B107D9F712E0A2E2B1E001C01D92CD
:10006000AC30B107E1F7D0D182C5CACF1F920F9251
:100070000FB60F9211248F939F9380912A01816074
:1000800080932A018091FB018F5F8093FB018A306E
:1000900058F01092FB0180912B0190912C01019658
:1000A00090932C0180932B019F918F910F900FBE05
:1000B0000F901F9018951F920F920FB60F92112458
:1000C0002F933F934F935F936F937F938F939F9360
:1000D000AF93BF93209178003091790080912301F4
:1000E00090912401280F391F30932401209323017C
:1000F000809122018F5F809322018034D8F0002408
:10010000220F331F001C220F331F001C232F302D02
:10011000A6E9B0E0EED429E09695879577956795A6
:100120002A95D1F76093290110922401109223019E
:1001300010922201BF91AF919F918F917F916F910A
:100140005F914F913F912F910F900FBE0F901F9095
:1001500018951F93CF93DF93CDB7DEB7A8970FB64F
:10016000F894DEBF0FBECDBF20E044E1BE016B5E60
:100170007F4F8CEF91E04DD4882351F080912D0179
:100180009E89981729F09D899F3F61F0891751F04A
:10019000A8960FB6F894DEBF0FBECDBFDF91CF910A
:1001A0001F9108953F893323D9F110E080E090E05A
:1001B0002DEF210F223048F0E5E1F0E0EC0FFD1FBC
:1001C000E10FF11D608178D33F891F5F131780F322
:1001D000292F30E0498D50E042175307C9F699277F
:1001E000288D30E08217930799F68A8D813409F4BF
:1001F00075C08735D1F08235B1F1863509F44CC030
:10020000883531F6F894A89584B7877F84BF8091AC
:10021000600088618093600088E080936000FFCF79
:1002200020E030E080E090E0D5CF8E89898388E0BF
:100230008B8387E78E838B8D6C8D90E08AD48B8D3A
:100240008F839C8D9887811124C080E090E079D4C1
:1002500080932D018A834B81BE016F5F7F4F84E0C5
:1002600092E091D395CF8E89898380912D018A83E5
:1002700088E08B8382E78E838B8D8F8390E061D4BF
:10028000888748E0BE016F5F7F4F84E092E07BD3B8
:100290007FCF80912D01DECF8E89898380912D01C2
:1002A0008A8380E18B8386E78E831F82188684E0B1
:1002B00089878EE68A8781E08B871C8682E48D871A
:1002C00084E48E8784E38F8782E3888B40E1BE01DC
:1002D0006F5F7F4F84E092E056D35ACF8E89898337
:1002E00080912D018A8386E08B8381E68E8346E0B0
:1002F000BE016F5F7F4F84E092E045D349CFCF933B
:1003000014BEA89588E10FB6F8948093600010920F
:1003100060000FBE84B1887F84B987B1807E87B9C1
:100320008AB18F708AB985B1876085B988B18F61CC
:1003300088B98BB1806F8BB980E090E002D49FEFD9
:10034000980F9E3FD0F580932D0183E090E0F9D384
:10035000C82F82E090E0F5D32C2F30E0382B30937B
:10036000010120930001809100019091010101960B
:1003700061F18091000190910101892BD9F0809168
:10038000000190910101909301018093000186E4A6
:1003900080937C0086E380937A0010927B00109219
:1003A0007E001092290180917A00886D80937A00F6
:1003B000CF91089581E090E0E6CF83E080932D0116
:1003C00063E080E090E0C5D3C0CF64E183E090E0DB
:1003D000C0D360E082E090E0BCD3CBCF49B186B11E
:1003E00033B126B18F7050E1859FC0011124429531
:1003F0004F70942B269528703770232B822B909367
:100400002801809327010895CF93DF93CDB7DEB7FE
:1004100064970FB6F894DEBF0FBECDBF70DF16BC79
:1004200082EC87BD1092FB0110922C0110922B01DF
:1004300082E084BD85E085BD80916E0082608093FE
:100440006E0044E06BE571E084E092E080D244E02D
:100450006BEA71E08CEF91E07AD252D1789410E09F
:10046000FF24FA9439E0D32E43E5E42EA8958CEFCF
:1004700091E082D281115EC080912A0180FD53C03B
:1004800020912B0130912C0180910001909101016C
:100490002817390750F520912701309128018091C4
:1004A00025019091260128173907F9F4111135C05B
:1004B00084E092E061D28823C9F240D18823B1F26E
:1004C00004E102C0015091F2F1D18111CFCFA89582
:1004D00087E893E10197F1F700C000008CEF91E00D
:1004E0004BD2882379F335DEEDCFF89480912B0140
:1004F00090912C012091000130910101821B930BFE
:1005000090932C0180932B017894809127019091F6
:10051000280190932601809325018091060288236B
:1005200059F011E0C5CF5ADF80912A018E7F809368
:100530002A01A6CF0EDEA0CF80912D018A83F982F9
:10054000DB82EE8290912701809128018F708F834A
:10055000988780912901898749E0BE016F5F7F4FAD
:1005600084E092E010D210E0A3CFF894882399F0B1
:100570005A9890E020E006C0933020F0489921E09E
:1005800028130BC035E83A95F1F700009F5F9A30C9
:1005900099F780E008955A9AECCF5A985198789438
:1005A00081E008951F920F920FB60F9211242F939E
:1005B0003F934F935F936F937F938F939F93AF93EB
:1005C000BF93EF93FF9381E080935A018091C00025
:1005D000887181F5E091450181E08E0F809345019E
:1005E0008091C600F0E0EA5BFE4F80838091450178
:1005F000863030F04091480180914501481709F15B
:1006000080914501853128F080914501815080938A
:100610004501FF91EF91BF91AF919F918F917F9194
:100620006F915F914F913F912F910F900FBE0F905F
:100630001F9018958091C600809345011092450146
:10064000E8CF10924501453108F044E166E471E0DD
:100650008CEF91E098D110925A01DBCF1F920F924C
:100660000FB60F9211248F93EF93FF935A98E1ECFA
:10067000F0E0808187718068808386E080932F011D
:10068000FF91EF918F910F900FBE0F901F901895D3
:100690001F920F920FB60F9211248F939F93EF9397
:1006A000FF93E091300181E08E0F80933001F0E004
:1006B000EF5CFE4F80818093C600809130018431D1
:1006C00078F49091330180913001981749F0FF91AF
:1006D000EF919F918F910F900FBE0F901F901895E3
:1006E0008091C00080648093C0008091C1008F7DA4
:1006F0008093C1008091C10080648093C100E7CFE6
:10070000529A5A988AB18C7F8AB91092300110920D
:100710005A0126E020932F0120932E0185E190E0DD
:100720009093C5008093C4001092C000E1ECF0E00B
:1007300010822093C20088E980830895CF93DF93CD
:1007400084E092E019D1882309F44EC0C091C10021
:10075000C07629F0C1E08C2FDF91CF91089521E080
:1007600044E161E371E084E092E053D18091330190
:10077000853008F468C0D09132018091330188231C
:1007800009F492C080E090E0C0E02DEF2C0F223001
:1007900030F0EC2FF0E0EF5CFE4F60818DD0CF5F4A
:1007A00020913301C21788F380933401909335016F
:1007B00010925A0130912F0180912E012091320127
:1007C000EFE0F7E23197F1F700C0000090915A0195
:1007D000992309F43CC080912F01882309F4BACFF2
:1007E000815080932F01B6CFC0E08C2FDF91CF9145
:1007F000089580E0BADE8111EECFC8E08D2F8170C0
:10080000B4DED6958111E7CFC150C1F781E0ADDEEE
:100810008111E1CF81E0A9DE8111DDCF109230019D
:10082000F89451988091C10088608093C1008091B4
:10083000C00080648093C0005A9A8091C100806299
:100840008093C100789484E092E037D184CF2F70F8
:100850002A5E90E0830F911D982F990F990F980FA2
:10086000290FF8948BB1897F8BB9519A8091C1007F
:10087000877F8093C100109245017894222309F468
:10088000B8CF80E004C08F5F821709F4B2CFF5E8DB
:10089000FA95F1F700004899F6CF519880912F0111
:1008A000882309F457CF9CCF90E07ECF90915A01D6
:1008B00081E0911180E0089571E0713021F1292FDC
:1008C0002295592F5295507F482F4295407F2627D9
:1008D0002F7030E0F901EE5EFE4F982F92959F70D9
:1008E000952B80819827F901EE5FFE4F8081842748
:1008F000723001F5292F30E0322F2227A901480F4D
:10090000511DCA010895492F46279295907F282F9F
:100910002295207F42954F7050E0FA01EE5EFE4F27
:1009200082958F70982B80819827FA01EE5FFE4F99
:10093000808182277F5FC1CFFC012FB7F89480812F
:100940009181891B6781E1D0892F2FBF0895CF93B3
:10095000FC01CB01CFB7F894748363834783118282
:100960001082128224E1429FA001112460E070E015
:10097000E1D0CFBFCF910895FC012281222311F055
:1009800087810895D9CFEF92FF920F931F93CF9352
:10099000DF93EC018A81882341F080E0DF91CF91E1
:1009A0001F910F91FF90EF900895453180F5888158
:1009B0000B811C8194E1899F000D111D1124E42EEF
:1009C000F12CA701C801ADD044E150E04E195F09F8
:1009D00060E070E0C8018E0D9F1DACD088818F5FF4
:1009E00088839F81891788F49FB7F894288189812B
:1009F000281302C081E08A839FBF81E0DF91CF91FD
:100A00001F910F91FF90EF9008951882EDCF44E170
:100A1000CECFCF92DF92EF92FF920F931F93CF939F
:100A2000DF93EC017B01D42EC22E042F10E0A8012D
:100A300060E070E0C7017ED08A818823D9F18F8180
:100A4000882319F16B817C818981FB0194E1899F65
:100A5000E00DF11D11248281D81600F5898194E101
:100A6000899F600D711D1124A801C7015AD0C110C2
:100A70001FC08FB7F89499819F5F99832F81921738
:100A800008F019821A828FBF81E0DF91CF911F9108
:100A90000F91FF90EF90DF90CF9008958981FB0137
:100AA00094E1899FE00DF11D1124028110E0D6CF61
:100AB00081E0EBCFCE0140DFC3CFCF93DF93EC01DA
:100AC0008A81882399F08F81882359F08FB7F89411
:100AD00099819F5F99832F81921730F41A828FBF7B
:100AE00081E0DF91CF9108951982F8CFCE0124DF04
:100AF000EBCFA29FB001B39FC001A39F01D0B29FD3
:100B0000700D811D1124911D0895991B79E004C079
:100B1000991F961708F0961B881F7A95C9F780953C
:100B20000895FB01DC0102C001900D92415050403C
:100B3000D8F70895DC0101C06D9341505040E0F7B3
:100B40000895F999FECF12BC81BDF89A992780B516
:100B50000895262FF999FECF1FBA12BC81BD20BD82
:100B60000FB6F894FA9AF99A0FBE01960895F89480
:020B7000FFCFB5
:100B72000A0000010302070604050E0F0D0C090806
:100B82000A0B00A0E04060C08020C0602080A0006E
:020B920040E041
:00000001FF
